{
  "note": {
    "nullifier": "489677222100122655284279788893350353510748606480768674687937311613951190571",
    "nullifierHex": "011525c1a401d6adbb5465d449354f0ac9cf54ec58d7a506f91d3c363804a62b",
    "secret": "21612811423655967076394405584840952908357201261874052871800517797960515443529",
    "secretHex": "2fc86af2a9a811903c0a03048459f77736b05da76e3d6d9e420fbe55fcd1db49",
    "noteHash": "20240946221549046411939626415503777207438173261779641461403617661196885818906",
    "noteHashHex": "2cbff83634fff28a7d2130a99013a8a06e445b4e1617f2d06fc5d283c977fe1a",
    "amount": "100000",
    "commitment": "8150936980832944706814377108767122669426605912886921514581005507440642911903",
    "commitmentHex": "1205444fd4eb0649c6d26a7fe15893f0ded3131fa060dcf6edf1b1f9ff586e9f"
  },
  "taproot": {
    "internalKeyHex": "dd31311f6bdf95d2d359b175adb702b70edadf68719cd0bff8a639a40681168e",
    "outputKeyHex": "ea400ef4842f70bff64104c96851f3a9184a9b774626fedef9aa272939c2d4ab",
    "tweakHex": "908147d30853ca787ac606554fbfdf839019ff4974d2963397994dacbd2a80f3",
    "address": "tb1pafqqaayy9actlajpqnyks50n4yvy4xmhgcn0ahhe4gnjjwwz6j4s3ll6pt",
    "scriptPubKeyHex": "5120ea400ef4842f70bff64104c96851f3a9184a9b774626fedef9aa272939c2d4ab"
  },
  "transaction": {
    "txidHex": "bec8672b7dab057d6ccbcb52f664f9964652e6706646f849aef507b7f554d2ab",
    "wtxidHex": "2ca1f50b9205ee615cd8a93e2f62f95994696d36d90761e509245b8710a7da73",
    "rawTxHex": "020000000001011c122e8322b668c7c898c2085874663f190470d4c3e122bc2bb7658ce673be1c0000000000ffffffff02a086010000000000225120ea400ef4842f70bff64104c96851f3a9184a9b774626fedef9aa272939c2d4ab0000000000000000226a201205444fd4eb0649c6d26a7fe15893f0ded3131fa060dcf6edf1b1f9ff586e9f0240a905c6e63333776ad78a299aa8130bf3778e2ce543f7e3cfe02edb7f874ca77c5e1c31d6d30cae791c0fc83e6605fc8f456f2f8d82978e59274e257106c777b5218df51adb345823d2f91cde0261ce880b8177926ce838e499d0c98adc02f49b5d5200000000",
    "rawTxSize": 239
  },
  "merkleProof": {
    "merkleRootHex": "fb395e19f1fcdcb72fd1f683b4c196986e7b128c321777ace07410ae72d46e09",
    "siblingsHex": [
      "b7b447c0b414408a6ce9a4686764743c64bbdde0ef5a740332155a663e56883b",
      "7f8d85453ae3723523ecbe499d1ac8c126dfd10f415534bda7823785d83c363a",
      "c2a878cc5156d984b07784ec156da7821fae3da14492df2c5892854afb9ea41c"
    ],
    "indices": [
      1,
      1,
      0
    ]
  },
  "blockHeader": {
    "height": 850000,
    "headerHex": "0000002085d352c0429748824310f9e0416402285ffe4acda00f2f95a1fe9a5b5010b20efb395e19f1fcdcb72fd1f683b4c196986e7b128c321777ace07410ae72d46e09fe86d487ffff001d50f80c00"
  }
}